{
  "_format": "hh3-artifact-1",
  "contractName": "SoulboundCertificate",
  "sourceName": "contracts/SoulboundCertificate.sol",
  "abi": [
    {
      "inputs": [
        {
          "internalType": "address",
          "name": "defaultAdmin",
          "type": "address"
        },
        {
          "internalType": "address",
          "name": "minter",
          "type": "address"
        }
      ],
      "stateMutability": "nonpayable",
      "type": "constructor"
    },
    {
      "inputs": [],
      "name": "AccessControlBadConfirmation",
      "type": "error"
    },
    {
      "inputs": [
        {
          "internalType": "address",
          "name": "account",
          "type": "address"
        },
        {
          "internalType": "bytes32",
          "name": "neededRole",
          "type": "bytes32"
        }
      ],
      "name": "AccessControlUnauthorizedAccount",
      "type": "error"
    },
    {
      "inputs": [
        {
          "internalType": "address",
          "name": "sender",
          "type": "address"
        },
        {
          "internalType": "uint256",
          "name": "tokenId",
          "type": "uint256"
        },
        {
          "internalType": "address",
          "name": "owner",
          "type": "address"
        }
      ],
      "name": "ERC721IncorrectOwner",
      "type": "error"
    },
    {
      "inputs": [
        {
          "internalType": "address",
          "name": "operator",
          "type": "address"
        },
        {
          "internalType": "uint256",
          "name": "tokenId",
          "type": "uint256"
        }
      ],
      "name": "ERC721InsufficientApproval",
      "type": "error"
    },
    {
      "inputs": [
        {
          "internalType": "address",
          "name": "approver",
          "type": "address"
        }
      ],
      "name": "ERC721InvalidApprover",
      "type": "error"
    },
    {
      "inputs": [
        {
          "internalType": "address",
          "name": "operator",
          "type": "address"
        }
      ],
      "name": "ERC721InvalidOperator",
      "type": "error"
    },
    {
      "inputs": [
        {
          "internalType": "address",
          "name": "owner",
          "type": "address"
        }
      ],
      "name": "ERC721InvalidOwner",
      "type": "error"
    },
    {
      "inputs": [
        {
          "internalType": "address",
          "name": "receiver",
          "type": "address"
        }
      ],
      "name": "ERC721InvalidReceiver",
      "type": "error"
    },
    {
      "inputs": [
        {
          "internalType": "address",
          "name": "sender",
          "type": "address"
        }
      ],
      "name": "ERC721InvalidSender",
      "type": "error"
    },
    {
      "inputs": [
        {
          "internalType": "uint256",
          "name": "tokenId",
          "type": "uint256"
        }
      ],
      "name": "ERC721NonexistentToken",
      "type": "error"
    },
    {
      "anonymous": false,
      "inputs": [
        {
          "indexed": true,
          "internalType": "address",
          "name": "owner",
          "type": "address"
        },
        {
          "indexed": true,
          "internalType": "address",
          "name": "approved",
          "type": "address"
        },
        {
          "indexed": true,
          "internalType": "uint256",
          "name": "tokenId",
          "type": "uint256"
        }
      ],
      "name": "Approval",
      "type": "event"
    },
    {
      "anonymous": false,
      "inputs": [
        {
          "indexed": true,
          "internalType": "address",
          "name": "owner",
          "type": "address"
        },
        {
          "indexed": true,
          "internalType": "address",
          "name": "operator",
          "type": "address"
        },
        {
          "indexed": false,
          "internalType": "bool",
          "name": "approved",
          "type": "bool"
        }
      ],
      "name": "ApprovalForAll",
      "type": "event"
    },
    {
      "anonymous": false,
      "inputs": [
        {
          "indexed": false,
          "internalType": "uint256",
          "name": "_fromTokenId",
          "type": "uint256"
        },
        {
          "indexed": false,
          "internalType": "uint256",
          "name": "_toTokenId",
          "type": "uint256"
        }
      ],
      "name": "BatchMetadataUpdate",
      "type": "event"
    },
    {
      "anonymous": false,
      "inputs": [
        {
          "indexed": true,
          "internalType": "uint256",
          "name": "tokenId",
          "type": "uint256"
        },
        {
          "indexed": true,
          "internalType": "address",
          "name": "student",
          "type": "address"
        },
        {
          "indexed": false,
          "internalType": "string",
          "name": "uri",
          "type": "string"
        }
      ],
      "name": "CertificateIssued",
      "type": "event"
    },
    {
      "anonymous": false,
      "inputs": [
        {
          "indexed": true,
          "internalType": "uint256",
          "name": "tokenId",
          "type": "uint256"
        }
      ],
      "name": "CertificateRevoked",
      "type": "event"
    },
    {
      "anonymous": false,
      "inputs": [
        {
          "indexed": false,
          "internalType": "uint256",
          "name": "_tokenId",
          "type": "uint256"
        }
      ],
      "name": "MetadataUpdate",
      "type": "event"
    },
    {
      "anonymous": false,
      "inputs": [
        {
          "indexed": true,
          "internalType": "bytes32",
          "name": "role",
          "type": "bytes32"
        },
        {
          "indexed": true,
          "internalType": "bytes32",
          "name": "previousAdminRole",
          "type": "bytes32"
        },
        {
          "indexed": true,
          "internalType": "bytes32",
          "name": "newAdminRole",
          "type": "bytes32"
        }
      ],
      "name": "RoleAdminChanged",
      "type": "event"
    },
    {
      "anonymous": false,
      "inputs": [
        {
          "indexed": true,
          "internalType": "bytes32",
          "name": "role",
          "type": "bytes32"
        },
        {
          "indexed": true,
          "internalType": "address",
          "name": "account",
          "type": "address"
        },
        {
          "indexed": true,
          "internalType": "address",
          "name": "sender",
          "type": "address"
        }
      ],
      "name": "RoleGranted",
      "type": "event"
    },
    {
      "anonymous": false,
      "inputs": [
        {
          "indexed": true,
          "internalType": "bytes32",
          "name": "role",
          "type": "bytes32"
        },
        {
          "indexed": true,
          "internalType": "address",
          "name": "account",
          "type": "address"
        },
        {
          "indexed": true,
          "internalType": "address",
          "name": "sender",
          "type": "address"
        }
      ],
      "name": "RoleRevoked",
      "type": "event"
    },
    {
      "anonymous": false,
      "inputs": [
        {
          "indexed": true,
          "internalType": "address",
          "name": "from",
          "type": "address"
        },
        {
          "indexed": true,
          "internalType": "address",
          "name": "to",
          "type": "address"
        },
        {
          "indexed": true,
          "internalType": "uint256",
          "name": "tokenId",
          "type": "uint256"
        }
      ],
      "name": "Transfer",
      "type": "event"
    },
    {
      "inputs": [],
      "name": "DEFAULT_ADMIN_ROLE",
      "outputs": [
        {
          "internalType": "bytes32",
          "name": "",
          "type": "bytes32"
        }
      ],
      "stateMutability": "view",
      "type": "function"
    },
    {
      "inputs": [],
      "name": "MINTER_ROLE",
      "outputs": [
        {
          "internalType": "bytes32",
          "name": "",
          "type": "bytes32"
        }
      ],
      "stateMutability": "view",
      "type": "function"
    },
    {
      "inputs": [
        {
          "internalType": "address",
          "name": "to",
          "type": "address"
        },
        {
          "internalType": "uint256",
          "name": "tokenId",
          "type": "uint256"
        }
      ],
      "name": "approve",
      "outputs": [],
      "stateMutability": "nonpayable",
      "type": "function"
    },
    {
      "inputs": [
        {
          "internalType": "address",
          "name": "owner",
          "type": "address"
        }
      ],
      "name": "balanceOf",
      "outputs": [
        {
          "internalType": "uint256",
          "name": "",
          "type": "uint256"
        }
      ],
      "stateMutability": "view",
      "type": "function"
    },
    {
      "inputs": [
        {
          "internalType": "uint256",
          "name": "tokenId",
          "type": "uint256"
        }
      ],
      "name": "getApproved",
      "outputs": [
        {
          "internalType": "address",
          "name": "",
          "type": "address"
        }
      ],
      "stateMutability": "view",
      "type": "function"
    },
    {
      "inputs": [
        {
          "internalType": "bytes32",
          "name": "role",
          "type": "bytes32"
        }
      ],
      "name": "getRoleAdmin",
      "outputs": [
        {
          "internalType": "bytes32",
          "name": "",
          "type": "bytes32"
        }
      ],
      "stateMutability": "view",
      "type": "function"
    },
    {
      "inputs": [
        {
          "internalType": "bytes32",
          "name": "role",
          "type": "bytes32"
        },
        {
          "internalType": "address",
          "name": "account",
          "type": "address"
        }
      ],
      "name": "grantRole",
      "outputs": [],
      "stateMutability": "nonpayable",
      "type": "function"
    },
    {
      "inputs": [
        {
          "internalType": "bytes32",
          "name": "role",
          "type": "bytes32"
        },
        {
          "internalType": "address",
          "name": "account",
          "type": "address"
        }
      ],
      "name": "hasRole",
      "outputs": [
        {
          "internalType": "bool",
          "name": "",
          "type": "bool"
        }
      ],
      "stateMutability": "view",
      "type": "function"
    },
    {
      "inputs": [
        {
          "internalType": "address",
          "name": "owner",
          "type": "address"
        },
        {
          "internalType": "address",
          "name": "operator",
          "type": "address"
        }
      ],
      "name": "isApprovedForAll",
      "outputs": [
        {
          "internalType": "bool",
          "name": "",
          "type": "bool"
        }
      ],
      "stateMutability": "view",
      "type": "function"
    },
    {
      "inputs": [],
      "name": "name",
      "outputs": [
        {
          "internalType": "string",
          "name": "",
          "type": "string"
        }
      ],
      "stateMutability": "view",
      "type": "function"
    },
    {
      "inputs": [
        {
          "internalType": "uint256",
          "name": "tokenId",
          "type": "uint256"
        }
      ],
      "name": "ownerOf",
      "outputs": [
        {
          "internalType": "address",
          "name": "",
          "type": "address"
        }
      ],
      "stateMutability": "view",
      "type": "function"
    },
    {
      "inputs": [
        {
          "internalType": "bytes32",
          "name": "role",
          "type": "bytes32"
        },
        {
          "internalType": "address",
          "name": "callerConfirmation",
          "type": "address"
        }
      ],
      "name": "renounceRole",
      "outputs": [],
      "stateMutability": "nonpayable",
      "type": "function"
    },
    {
      "inputs": [
        {
          "internalType": "uint256",
          "name": "tokenId",
          "type": "uint256"
        }
      ],
      "name": "revoke",
      "outputs": [],
      "stateMutability": "nonpayable",
      "type": "function"
    },
    {
      "inputs": [
        {
          "internalType": "bytes32",
          "name": "role",
          "type": "bytes32"
        },
        {
          "internalType": "address",
          "name": "account",
          "type": "address"
        }
      ],
      "name": "revokeRole",
      "outputs": [],
      "stateMutability": "nonpayable",
      "type": "function"
    },
    {
      "inputs": [
        {
          "internalType": "address",
          "name": "to",
          "type": "address"
        },
        {
          "internalType": "string",
          "name": "uri",
          "type": "string"
        }
      ],
      "name": "safeMint",
      "outputs": [],
      "stateMutability": "nonpayable",
      "type": "function"
    },
    {
      "inputs": [
        {
          "internalType": "address",
          "name": "from",
          "type": "address"
        },
        {
          "internalType": "address",
          "name": "to",
          "type": "address"
        },
        {
          "internalType": "uint256",
          "name": "tokenId",
          "type": "uint256"
        }
      ],
      "name": "safeTransferFrom",
      "outputs": [],
      "stateMutability": "nonpayable",
      "type": "function"
    },
    {
      "inputs": [
        {
          "internalType": "address",
          "name": "",
          "type": "address"
        },
        {
          "internalType": "address",
          "name": "",
          "type": "address"
        },
        {
          "internalType": "uint256",
          "name": "",
          "type": "uint256"
        },
        {
          "internalType": "bytes",
          "name": "",
          "type": "bytes"
        }
      ],
      "name": "safeTransferFrom",
      "outputs": [],
      "stateMutability": "nonpayable",
      "type": "function"
    },
    {
      "inputs": [
        {
          "internalType": "address",
          "name": "operator",
          "type": "address"
        },
        {
          "internalType": "bool",
          "name": "approved",
          "type": "bool"
        }
      ],
      "name": "setApprovalForAll",
      "outputs": [],
      "stateMutability": "nonpayable",
      "type": "function"
    },
    {
      "inputs": [
        {
          "internalType": "bytes4",
          "name": "interfaceId",
          "type": "bytes4"
        }
      ],
      "name": "supportsInterface",
      "outputs": [
        {
          "internalType": "bool",
          "name": "",
          "type": "bool"
        }
      ],
      "stateMutability": "view",
      "type": "function"
    },
    {
      "inputs": [],
      "name": "symbol",
      "outputs": [
        {
          "internalType": "string",
          "name": "",
          "type": "string"
        }
      ],
      "stateMutability": "view",
      "type": "function"
    },
    {
      "inputs": [
        {
          "internalType": "uint256",
          "name": "tokenId",
          "type": "uint256"
        }
      ],
      "name": "tokenURI",
      "outputs": [
        {
          "internalType": "string",
          "name": "",
          "type": "string"
        }
      ],
      "stateMutability": "view",
      "type": "function"
    },
    {
      "inputs": [
        {
          "internalType": "address",
          "name": "",
          "type": "address"
        },
        {
          "internalType": "address",
          "name": "",
          "type": "address"
        },
        {
          "internalType": "uint256",
          "name": "",
          "type": "uint256"
        }
      ],
      "name": "transferFrom",
      "outputs": [],
      "stateMutability": "nonpayable",
      "type": "function"
    }
  ],
  "bytecode": "0x608060405234801561000f575f5ffd5b506040516130ba3803806130ba833981810160405281019061003191906102c8565b6040518060400160405280601381526020017f41636164656d69634365727469666963617465000000000000000000000000008152506040518060400160405280600481526020017f4345525400000000000000000000000000000000000000000000000000000000815250815f90816100ab9190610543565b5080600190816100bb9190610543565b5050506100d05f5f1b8361010960201b60201c565b506101017f9f2df0fed2c77648de5860a4cc508cd0818c85b8b8a1ab4ceeef8d981c8956a68261010960201b60201c565b505050610612565b5f61011a83836101ff60201b60201c565b6101f557600160075f8581526020019081526020015f205f015f8473ffffffffffffffffffffffffffffffffffffffff1673ffffffffffffffffffffffffffffffffffffffff1681526020019081526020015f205f6101000a81548160ff02191690831515021790555061019261026360201b60201c565b73ffffffffffffffffffffffffffffffffffffffff168273ffffffffffffffffffffffffffffffffffffffff16847f2f8788117e7eff1d82e926ec794901d17c78024a50270940304540a733656f0d60405160405180910390a4600190506101f9565b5f90505b92915050565b5f60075f8481526020019081526020015f205f015f8373ffffffffffffffffffffffffffffffffffffffff1673ffffffffffffffffffffffffffffffffffffffff1681526020019081526020015f205f9054906101000a900460ff16905092915050565b5f33905090565b5f5ffd5b5f73ffffffffffffffffffffffffffffffffffffffff82169050919050565b5f6102978261026e565b9050919050565b6102a78161028d565b81146102b1575f5ffd5b50565b5f815190506102c28161029e565b92915050565b5f5f604083850312156102de576102dd61026a565b5b5f6102eb858286016102b4565b92505060206102fc858286016102b4565b9150509250929050565b5f81519050919050565b7f4e487b71000000000000000000000000000000000000000000000000000000005f52604160045260245ffd5b7f4e487b71000000000000000000000000000000000000000000000000000000005f52602260045260245ffd5b5f600282049050600182168061038157607f821691505b6020821081036103945761039361033d565b5b50919050565b5f819050815f5260205f209050919050565b5f6020601f8301049050919050565b5f82821b905092915050565b5f600883026103f67fffffffffffffffffffffffffffffffffffffffffffffffffffffffffffffffff826103bb565b61040086836103bb565b95508019841693508086168417925050509392505050565b5f819050919050565b5f819050919050565b5f61044461043f61043a84610418565b610421565b610418565b9050919050565b5f819050919050565b61045d8361042a565b6104716104698261044b565b8484546103c7565b825550505050565b5f5f905090565b610488610479565b610493818484610454565b505050565b5b818110156104b6576104ab5f82610480565b600181019050610499565b5050565b601f8211156104fb576104cc8161039a565b6104d5846103ac565b810160208510156104e4578190505b6104f86104f0856103ac565b830182610498565b50505b505050565b5f82821c905092915050565b5f61051b5f1984600802610500565b1980831691505092915050565b5f610533838361050c565b9150826002028217905092915050565b61054c82610306565b67ffffffffffffffff81111561056557610564610310565b5b61056f825461036a565b61057a8282856104ba565b5f60209050601f8311600181146105ab575f8415610599578287015190505b6105a38582610528565b86555061060a565b601f1984166105b98661039a565b5f5b828110156105e0578489015182556001820191506020850194506020810190506105bb565b868310156105fd57848901516105f9601f89168261050c565b8355505b6001600288020188555050505b505050505050565b612a9b8061061f5f395ff3fe608060405234801561000f575f5ffd5b5060043610610140575f3560e01c806370a08231116100b6578063b88d4fde1161007a578063b88d4fde14610382578063c87b56dd1461039e578063d204c45e146103ce578063d5391393146103ea578063d547741f14610408578063e985e9c51461042457610140565b806370a08231146102ca57806391d14854146102fa57806395d89b411461032a578063a217fddf14610348578063a22cb4651461036657610140565b806323b872dd1161010857806323b872dd146101fa578063248a9ca3146102165780632f2ff15d1461024657806336568abe1461026257806342842e0e1461027e5780636352211e1461029a57610140565b806301ffc9a71461014457806306fdde0314610174578063081812fc14610192578063095ea7b3146101c257806320c5429b146101de575b5f5ffd5b61015e60048036038101906101599190611e27565b610454565b60405161016b9190611e6c565b60405180910390f35b61017c610465565b6040516101899190611ef5565b60405180910390f35b6101ac60048036038101906101a79190611f48565b6104f4565b6040516101b99190611fb2565b60405180910390f35b6101dc60048036038101906101d79190611ff5565b61050f565b005b6101f860048036038101906101f39190611f48565b610525565b005b610214600480360381019061020f9190612033565b610589565b005b610230600480360381019061022b91906120b6565b6105c4565b60405161023d91906120f0565b60405180910390f35b610260600480360381019061025b9190612109565b6105e1565b005b61027c60048036038101906102779190612109565b610603565b005b61029860048036038101906102939190612033565b61067e565b005b6102b460048036038101906102af9190611f48565b61069d565b6040516102c19190611fb2565b60405180910390f35b6102e460048036038101906102df9190612147565b6106ae565b6040516102f19190612181565b60405180910390f35b610314600480360381019061030f9190612109565b610764565b6040516103219190611e6c565b60405180910390f35b6103326107c8565b60405161033f9190611ef5565b60405180910390f35b610350610858565b60405161035d91906120f0565b60405180910390f35b610380600480360381019061037b91906121c4565b61085e565b005b61039c6004803603810190610397919061232e565b610874565b005b6103b860048036038101906103b39190611f48565b6108af565b6040516103c59190611ef5565b60405180910390f35b6103e860048036038101906103e3919061244c565b6108c1565b005b6103f261096d565b6040516103ff91906120f0565b60405180910390f35b610422600480360381019061041d9190612109565b610991565b005b61043e600480360381019061043991906124a6565b6109b3565b60405161044b9190611e6c565b60405180910390f35b5f61045e82610a41565b9050919050565b60605f805461047390612511565b80601f016020809104026020016040519081016040528092919081815260200182805461049f90612511565b80156104ea5780601f106104c1576101008083540402835291602001916104ea565b820191905f5260205f20905b8154815290600101906020018083116104cd57829003601f168201915b5050505050905090565b5f6104fe82610aba565b5061050882610b40565b9050919050565b610521828261051c610b79565b610b80565b5050565b7f9f2df0fed2c77648de5860a4cc508cd0818c85b8b8a1ab4ceeef8d981c8956a661054f81610b92565b61055882610ba6565b817fefa6c5f47ac2523bb4db18032377bf7fdce0fa9d86eddcae1ca9bba38be615d760405160405180910390a25050565b6040517f08c379a00000000000000000000000000000000000000000000000000000000081526004016105bb906125b1565b60405180910390fd5b5f60075f8381526020019081526020015f20600101549050919050565b6105ea826105c4565b6105f381610b92565b6105fd8383610c28565b50505050565b61060b610b79565b73ffffffffffffffffffffffffffffffffffffffff168173ffffffffffffffffffffffffffffffffffffffff161461066f576040517f6697b23200000000000000000000000000000000000000000000000000000000815260040160405180910390fd5b6106798282610d12565b505050565b61069883838360405180602001604052805f815250610874565b505050565b5f6106a782610aba565b9050919050565b5f5f73ffffffffffffffffffffffffffffffffffffffff168273ffffffffffffffffffffffffffffffffffffffff160361071f575f6040517f89c62b640000000000000000000000000000000000000000000000000000000081526004016107169190611fb2565b60405180910390fd5b60035f8373ffffffffffffffffffffffffffffffffffffffff1673ffffffffffffffffffffffffffffffffffffffff1681526020019081526020015f20549050919050565b5f60075f8481526020019081526020015f205f015f8373ffffffffffffffffffffffffffffffffffffffff1673ffffffffffffffffffffffffffffffffffffffff1681526020019081526020015f205f9054906101000a900460ff16905092915050565b6060600180546107d790612511565b80601f016020809104026020016040519081016040528092919081815260200182805461080390612511565b801561084e5780601f106108255761010080835404028352916020019161084e565b820191905f5260205f20905b81548152906001019060200180831161083157829003601f168201915b5050505050905090565b5f5f1b81565b610870610869610b79565b8383610dfc565b5050565b6040517f08c379a00000000000000000000000000000000000000000000000000000000081526004016108a6906125b1565b60405180910390fd5b60606108ba82610f65565b9050919050565b7f9f2df0fed2c77648de5860a4cc508cd0818c85b8b8a1ab4ceeef8d981c8956a66108eb81610b92565b5f60085f8154809291906108fe906125fc565b91905055905061090e8482611070565b610918818461108d565b8373ffffffffffffffffffffffffffffffffffffffff16817fb7ff6cbe8f0282bf405f9ce3210be62c5620d39139a49186436e3f0fcc6a315a8560405161095f9190611ef5565b60405180910390a350505050565b7f9f2df0fed2c77648de5860a4cc508cd0818c85b8b8a1ab4ceeef8d981c8956a681565b61099a826105c4565b6109a381610b92565b6109ad8383610d12565b50505050565b5f60055f8473ffffffffffffffffffffffffffffffffffffffff1673ffffffffffffffffffffffffffffffffffffffff1681526020019081526020015f205f8373ffffffffffffffffffffffffffffffffffffffff1673ffffffffffffffffffffffffffffffffffffffff1681526020019081526020015f205f9054906101000a900460ff16905092915050565b5f7f7965db0b000000000000000000000000000000000000000000000000000000007bffffffffffffffffffffffffffffffffffffffffffffffffffffffff1916827bffffffffffffffffffffffffffffffffffffffffffffffffffffffff19161480610ab35750610ab2826110e7565b5b9050919050565b5f5f610ac583611147565b90505f73ffffffffffffffffffffffffffffffffffffffff168173ffffffffffffffffffffffffffffffffffffffff1603610b3757826040517f7e273289000000000000000000000000000000000000000000000000000000008152600401610b2e9190612181565b60405180910390fd5b80915050919050565b5f60045f8381526020019081526020015f205f9054906101000a900473ffffffffffffffffffffffffffffffffffffffff169050919050565b5f33905090565b610b8d8383836001611180565b505050565b610ba381610b9e610b79565b61133f565b50565b5f610bb25f835f611390565b90505f73ffffffffffffffffffffffffffffffffffffffff168173ffffffffffffffffffffffffffffffffffffffff1603610c2457816040517f7e273289000000000000000000000000000000000000000000000000000000008152600401610c1b9190612181565b60405180910390fd5b5050565b5f610c338383610764565b610d0857600160075f8581526020019081526020015f205f015f8473ffffffffffffffffffffffffffffffffffffffff1673ffffffffffffffffffffffffffffffffffffffff1681526020019081526020015f205f6101000a81548160ff021916908315150217905550610ca5610b79565b73ffffffffffffffffffffffffffffffffffffffff168273ffffffffffffffffffffffffffffffffffffffff16847f2f8788117e7eff1d82e926ec794901d17c78024a50270940304540a733656f0d60405160405180910390a460019050610d0c565b5f90505b92915050565b5f610d1d8383610764565b15610df2575f60075f8581526020019081526020015f205f015f8473ffffffffffffffffffffffffffffffffffffffff1673ffffffffffffffffffffffffffffffffffffffff1681526020019081526020015f205f6101000a81548160ff021916908315150217905550610d8f610b79565b73ffffffffffffffffffffffffffffffffffffffff168273ffffffffffffffffffffffffffffffffffffffff16847ff6391f5c32d9c69d2a47ea670b442974b53935d1edc7fd64eb21e047a839171b60405160405180910390a460019050610df6565b5f90505b92915050565b5f73ffffffffffffffffffffffffffffffffffffffff168273ffffffffffffffffffffffffffffffffffffffff1603610e6c57816040517f5b08ba18000000000000000000000000000000000000000000000000000000008152600401610e639190611fb2565b60405180910390fd5b8060055f8573ffffffffffffffffffffffffffffffffffffffff1673ffffffffffffffffffffffffffffffffffffffff1681526020019081526020015f205f8473ffffffffffffffffffffffffffffffffffffffff1673ffffffffffffffffffffffffffffffffffffffff1681526020019081526020015f205f6101000a81548160ff0219169083151502179055508173ffffffffffffffffffffffffffffffffffffffff168373ffffffffffffffffffffffffffffffffffffffff167f17307eab39ab6107e8899845ad3d59bd9653f200f220920489ca2b5937696c3183604051610f589190611e6c565b60405180910390a3505050565b6060610f7082610aba565b505f60065f8481526020019081526020015f208054610f8e90612511565b80601f0160208091040260200160405190810160405280929190818152602001828054610fba90612511565b80156110055780601f10610fdc57610100808354040283529160200191611005565b820191905f5260205f20905b815481529060010190602001808311610fe857829003601f168201915b505050505090505f61101561159b565b90505f81510361102957819250505061106b565b5f8251111561105d57808260405160200161104592919061267d565b6040516020818303038152906040529250505061106b565b611066846115b1565b925050505b919050565b611089828260405180602001604052805f815250611617565b5050565b8060065f8481526020019081526020015f2090816110ab9190612840565b507ff8e1a15aba9398e019f0b49df1a4fde98ee17ae345cb5f6b5e2c27f5033e8ce7826040516110db9190612181565b60405180910390a15050565b5f634906490660e01b7bffffffffffffffffffffffffffffffffffffffffffffffffffffffff1916827bffffffffffffffffffffffffffffffffffffffffffffffffffffffff19161480611140575061113f8261163a565b5b9050919050565b5f60025f8381526020019081526020015f205f9054906101000a900473ffffffffffffffffffffffffffffffffffffffff169050919050565b80806111b857505f73ffffffffffffffffffffffffffffffffffffffff168273ffffffffffffffffffffffffffffffffffffffff1614155b156112ea575f6111c784610aba565b90505f73ffffffffffffffffffffffffffffffffffffffff168373ffffffffffffffffffffffffffffffffffffffff161415801561123157508273ffffffffffffffffffffffffffffffffffffffff168173ffffffffffffffffffffffffffffffffffffffff1614155b8015611244575061124281846109b3565b155b1561128657826040517fa9fbf51f00000000000000000000000000000000000000000000000000000000815260040161127d9190611fb2565b60405180910390fd5b81156112e857838573ffffffffffffffffffffffffffffffffffffffff168273ffffffffffffffffffffffffffffffffffffffff167f8c5be1e5ebec7d5bd14f71427d1e84f3dd0314c0f7b2291e5b200ac8c7c3b92560405160405180910390a45b505b8360045f8581526020019081526020015f205f6101000a81548173ffffffffffffffffffffffffffffffffffffffff021916908373ffffffffffffffffffffffffffffffffffffffff16021790555050505050565b6113498282610764565b61138c5780826040517fe2517d3f00000000000000000000000000000000000000000000000000000000815260040161138392919061290f565b60405180910390fd5b5050565b5f5f61139b84611147565b90505f73ffffffffffffffffffffffffffffffffffffffff168373ffffffffffffffffffffffffffffffffffffffff16146113dc576113db81848661171b565b5b5f73ffffffffffffffffffffffffffffffffffffffff168173ffffffffffffffffffffffffffffffffffffffff16146114675761141b5f855f5f611180565b600160035f8373ffffffffffffffffffffffffffffffffffffffff1673ffffffffffffffffffffffffffffffffffffffff1681526020019081526020015f205f82825403925050819055505b5f73ffffffffffffffffffffffffffffffffffffffff168573ffffffffffffffffffffffffffffffffffffffff16146114e657600160035f8773ffffffffffffffffffffffffffffffffffffffff1673ffffffffffffffffffffffffffffffffffffffff1681526020019081526020015f205f82825401925050819055505b8460025f8681526020019081526020015f205f6101000a81548173ffffffffffffffffffffffffffffffffffffffff021916908373ffffffffffffffffffffffffffffffffffffffff160217905550838573ffffffffffffffffffffffffffffffffffffffff168273ffffffffffffffffffffffffffffffffffffffff167fddf252ad1be2c89b69c2b068fc378daa952ba7f163c4a11628f55a4df523b3ef60405160405180910390a4809150509392505050565b606060405180602001604052805f815250905090565b60606115bc82610aba565b505f6115c661159b565b90505f8151116115e45760405180602001604052805f81525061160f565b806115ee846117de565b6040516020016115ff92919061267d565b6040516020818303038152906040525b915050919050565b61162183836118a8565b61163561162c610b79565b5f85858561199b565b505050565b5f7f80ac58cd000000000000000000000000000000000000000000000000000000007bffffffffffffffffffffffffffffffffffffffffffffffffffffffff1916827bffffffffffffffffffffffffffffffffffffffffffffffffffffffff1916148061170457507f5b5e139f000000000000000000000000000000000000000000000000000000007bffffffffffffffffffffffffffffffffffffffffffffffffffffffff1916827bffffffffffffffffffffffffffffffffffffffffffffffffffffffff1916145b80611714575061171382611b47565b5b9050919050565b611726838383611bb0565b6117d9575f73ffffffffffffffffffffffffffffffffffffffff168373ffffffffffffffffffffffffffffffffffffffff160361179a57806040517f7e2732890000000000000000000000000000000000000000000000000000000081526004016117919190612181565b60405180910390fd5b81816040517f177e802f0000000000000000000000000000000000000000000000000000000081526004016117d0929190612936565b60405180910390fd5b505050565b60605f60016117ec84611c70565b0190505f8167ffffffffffffffff81111561180a5761180961220a565b5b6040519080825280601f01601f19166020018201604052801561183c5781602001600182028036833780820191505090505b5090505f82602083010190505b60011561189d578080600190039150507f3031323334353637383961626364656600000000000000000000000000000000600a86061a8153600a85816118925761189161295d565b5b0494505f8503611849575b819350505050919050565b5f73ffffffffffffffffffffffffffffffffffffffff168273ffffffffffffffffffffffffffffffffffffffff1603611918575f6040517f64a0ae9200000000000000000000000000000000000000000000000000000000815260040161190f9190611fb2565b60405180910390fd5b5f61192483835f611390565b90505f73ffffffffffffffffffffffffffffffffffffffff168173ffffffffffffffffffffffffffffffffffffffff1614611996575f6040517f73c6ac6e00000000000000000000000000000000000000000000000000000000815260040161198d9190611fb2565b60405180910390fd5b505050565b5f8373ffffffffffffffffffffffffffffffffffffffff163b1115611b40578273ffffffffffffffffffffffffffffffffffffffff1663150b7a02868685856040518563ffffffff1660e01b81526004016119f994939291906129dc565b6020604051808303815f875af1925050508015611a3457506040513d601f19601f82011682018060405250810190611a319190612a3a565b60015b611ab5573d805f8114611a62576040519150601f19603f3d011682016040523d82523d5f602084013e611a67565b606091505b505f815103611aad57836040517f64a0ae92000000000000000000000000000000000000000000000000000000008152600401611aa49190611fb2565b60405180910390fd5b805160208201fd5b63150b7a0260e01b7bffffffffffffffffffffffffffffffffffffffffffffffffffffffff1916817bffffffffffffffffffffffffffffffffffffffffffffffffffffffff191614611b3e57836040517f64a0ae92000000000000000000000000000000000000000000000000000000008152600401611b359190611fb2565b60405180910390fd5b505b5050505050565b5f7f01ffc9a7000000000000000000000000000000000000000000000000000000007bffffffffffffffffffffffffffffffffffffffffffffffffffffffff1916827bffffffffffffffffffffffffffffffffffffffffffffffffffffffff1916149050919050565b5f5f73ffffffffffffffffffffffffffffffffffffffff168373ffffffffffffffffffffffffffffffffffffffff1614158015611c6757508273ffffffffffffffffffffffffffffffffffffffff168473ffffffffffffffffffffffffffffffffffffffff161480611c285750611c2784846109b3565b5b80611c6657508273ffffffffffffffffffffffffffffffffffffffff16611c4e83610b40565b73ffffffffffffffffffffffffffffffffffffffff16145b5b90509392505050565b5f5f5f90507a184f03e93ff9f4daa797ed6e38ed64bf6a1f0100000000000000008310611ccc577a184f03e93ff9f4daa797ed6e38ed64bf6a1f0100000000000000008381611cc257611cc161295d565b5b0492506040810190505b6d04ee2d6d415b85acef81000000008310611d09576d04ee2d6d415b85acef81000000008381611cff57611cfe61295d565b5b0492506020810190505b662386f26fc100008310611d3857662386f26fc100008381611d2e57611d2d61295d565b5b0492506010810190505b6305f5e1008310611d61576305f5e1008381611d5757611d5661295d565b5b0492506008810190505b6127108310611d86576127108381611d7c57611d7b61295d565b5b0492506004810190505b60648310611da95760648381611d9f57611d9e61295d565b5b0492506002810190505b600a8310611db8576001810190505b80915050919050565b5f604051905090565b5f5ffd5b5f5ffd5b5f7fffffffff0000000000000000000000000000000000000000000000000000000082169050919050565b611e0681611dd2565b8114611e10575f5ffd5b50565b5f81359050611e2181611dfd565b92915050565b5f60208284031215611e3c57611e3b611dca565b5b5f611e4984828501611e13565b91505092915050565b5f8115159050919050565b611e6681611e52565b82525050565b5f602082019050611e7f5f830184611e5d565b92915050565b5f81519050919050565b5f82825260208201905092915050565b8281835e5f83830152505050565b5f601f19601f8301169050919050565b5f611ec782611e85565b611ed18185611e8f565b9350611ee1818560208601611e9f565b611eea81611ead565b840191505092915050565b5f6020820190508181035f830152611f0d8184611ebd565b905092915050565b5f819050919050565b611f2781611f15565b8114611f31575f5ffd5b50565b5f81359050611f4281611f1e565b92915050565b5f60208284031215611f5d57611f5c611dca565b5b5f611f6a84828501611f34565b91505092915050565b5f73ffffffffffffffffffffffffffffffffffffffff82169050919050565b5f611f9c82611f73565b9050919050565b611fac81611f92565b82525050565b5f602082019050611fc55f830184611fa3565b92915050565b611fd481611f92565b8114611fde575f5ffd5b50565b5f81359050611fef81611fcb565b92915050565b5f5f6040838503121561200b5761200a611dca565b5b5f61201885828601611fe1565b925050602061202985828601611f34565b9150509250929050565b5f5f5f6060848603121561204a57612049611dca565b5b5f61205786828701611fe1565b935050602061206886828701611fe1565b925050604061207986828701611f34565b9150509250925092565b5f819050919050565b61209581612083565b811461209f575f5ffd5b50565b5f813590506120b08161208c565b92915050565b5f602082840312156120cb576120ca611dca565b5b5f6120d8848285016120a2565b91505092915050565b6120ea81612083565b82525050565b5f6020820190506121035f8301846120e1565b92915050565b5f5f6040838503121561211f5761211e611dca565b5b5f61212c858286016120a2565b925050602061213d85828601611fe1565b9150509250929050565b5f6020828403121561215c5761215b611dca565b5b5f61216984828501611fe1565b91505092915050565b61217b81611f15565b82525050565b5f6020820190506121945f830184612172565b92915050565b6121a381611e52565b81146121ad575f5ffd5b50565b5f813590506121be8161219a565b92915050565b5f5f604083850312156121da576121d9611dca565b5b5f6121e785828601611fe1565b92505060206121f8858286016121b0565b9150509250929050565b5f5ffd5b5f5ffd5b7f4e487b71000000000000000000000000000000000000000000000000000000005f52604160045260245ffd5b61224082611ead565b810181811067ffffffffffffffff8211171561225f5761225e61220a565b5b80604052505050565b5f612271611dc1565b905061227d8282612237565b919050565b5f67ffffffffffffffff82111561229c5761229b61220a565b5b6122a582611ead565b9050602081019050919050565b828183375f83830152505050565b5f6122d26122cd84612282565b612268565b9050828152602081018484840111156122ee576122ed612206565b5b6122f98482856122b2565b509392505050565b5f82601f83011261231557612314612202565b5b81356123258482602086016122c0565b91505092915050565b5f5f5f5f6080858703121561234657612345611dca565b5b5f61235387828801611fe1565b945050602061236487828801611fe1565b935050604061237587828801611f34565b925050606085013567ffffffffffffffff81111561239657612395611dce565b5b6123a287828801612301565b91505092959194509250565b5f67ffffffffffffffff8211156123c8576123c761220a565b5b6123d182611ead565b9050602081019050919050565b5f6123f06123eb846123ae565b612268565b90508281526020810184848401111561240c5761240b612206565b5b6124178482856122b2565b509392505050565b5f82601f83011261243357612432612202565b5b81356124438482602086016123de565b91505092915050565b5f5f6040838503121561246257612461611dca565b5b5f61246f85828601611fe1565b925050602083013567ffffffffffffffff8111156124905761248f611dce565b5b61249c8582860161241f565b9150509250929050565b5f5f604083850312156124bc576124bb611dca565b5b5f6124c985828601611fe1565b92505060206124da85828601611fe1565b9150509250929050565b7f4e487b71000000000000000000000000000000000000000000000000000000005f52602260045260245ffd5b5f600282049050600182168061252857607f821691505b60208210810361253b5761253a6124e4565b5b50919050565b7f536f756c626f756e6443657274696669636174653a20546869732063657274695f8201527f666963617465206973206e6f6e2d7472616e7366657261626c65000000000000602082015250565b5f61259b603a83611e8f565b91506125a682612541565b604082019050919050565b5f6020820190508181035f8301526125c88161258f565b9050919050565b7f4e487b71000000000000000000000000000000000000000000000000000000005f52601160045260245ffd5b5f61260682611f15565b91507fffffffffffffffffffffffffffffffffffffffffffffffffffffffffffffffff8203612638576126376125cf565b5b600182019050919050565b5f81905092915050565b5f61265782611e85565b6126618185612643565b9350612671818560208601611e9f565b80840191505092915050565b5f612688828561264d565b9150612694828461264d565b91508190509392505050565b5f819050815f5260205f209050919050565b5f6020601f8301049050919050565b5f82821b905092915050565b5f600883026126fc7fffffffffffffffffffffffffffffffffffffffffffffffffffffffffffffffff826126c1565b61270686836126c1565b95508019841693508086168417925050509392505050565b5f819050919050565b5f61274161273c61273784611f15565b61271e565b611f15565b9050919050565b5f819050919050565b61275a83612727565b61276e61276682612748565b8484546126cd565b825550505050565b5f5f905090565b612785612776565b612790818484612751565b505050565b5b818110156127b3576127a85f8261277d565b600181019050612796565b5050565b601f8211156127f8576127c9816126a0565b6127d2846126b2565b810160208510156127e1578190505b6127f56127ed856126b2565b830182612795565b50505b505050565b5f82821c905092915050565b5f6128185f19846008026127fd565b1980831691505092915050565b5f6128308383612809565b9150826002028217905092915050565b61284982611e85565b67ffffffffffffffff8111156128625761286161220a565b5b61286c8254612511565b6128778282856127b7565b5f60209050601f8311600181146128a8575f8415612896578287015190505b6128a08582612825565b865550612907565b601f1984166128b6866126a0565b5f5b828110156128dd578489015182556001820191506020850194506020810190506128b8565b868310156128fa57848901516128f6601f891682612809565b8355505b6001600288020188555050505b505050505050565b5f6040820190506129225f830185611fa3565b61292f60208301846120e1565b9392505050565b5f6040820190506129495f830185611fa3565b6129566020830184612172565b9392505050565b7f4e487b71000000000000000000000000000000000000000000000000000000005f52601260045260245ffd5b5f81519050919050565b5f82825260208201905092915050565b5f6129ae8261298a565b6129b88185612994565b93506129c8818560208601611e9f565b6129d181611ead565b840191505092915050565b5f6080820190506129ef5f830187611fa3565b6129fc6020830186611fa3565b612a096040830185612172565b8181036060830152612a1b81846129a4565b905095945050505050565b5f81519050612a3481611dfd565b92915050565b5f60208284031215612a4f57612a4e611dca565b5b5f612a5c84828501612a26565b9150509291505056fea264697066735822122043b2c429d8a6ef67c75e626c25d2ee7e23afdde07a38637cd2c526701b95a79864736f6c634300081c0033",
  "linkReferences": {},
  "deployedLinkReferences": {},
  "immutableReferences": {},
  "inputSourceName": "project/contracts/SoulboundCertificate.sol",
  "buildInfoId": "solc-0_8_28-31cc6c20fe011d42f00c0a5bc0e7b15ffe7a4a47"
}